S01700004D6F7573655F4D617A655F546573742E7372656319
S11300000C943A000C9457000C9457000C9457002D
S11300100C9457000C9457000C9457000C94570000
S11300200C9457000C9457000C9457000C945700F0
S11300300C9457000C9457000C9457000C945700E0
S11300400C9457000C9457000C9457000C945700D0
S11300500C9457000C9457000C9457000C945700C0
S11300600C9457000C9457000C9457000C945700B0
S11300700C94570011241FBECFEFD8E0DEBFCDBFD4
S113008011E0A0E0B1E0E6E8FBE402C005900D92C7
S1130090A230B107D9F727E0A2E0B1E001C01D9278
S11300A0A836B207E1F70E94AB200C94C1250C944A
S11300B0000080910A0190910B01A0910C01B09174
S11300C00D010196A11DB11D80930A0190930B01AE
S11300D0A0930C01B0930D010895809106019091B5
S11300E00701A0910801B09109010196A11DB11D5C
S11300F08093060190930701A0930801B09309012E
S113010008956FEF73E080E090E00E94EC20089582
S113011050E01EC0852F90E060E1469F90011124BD
S1130120F901E35BFA4FE80FF91F1082F901E35B71
S1130130FB4FE80FF91F1082245B3C4FF901E80FD5
S1130140F91F10824F5F01C040E0403118F35F5F38
S11301505031D0F30895B0E02CC08B2F90E048E0EC
S113016050E0481B590B9A0122F422273327241B01
S1130170350B422F6A2F70E0E8E0F0E0E61BF70B46
S11301809F0122F4222733272E1B3F0B8295929541
S1130190907F9827807F9827845B9C4FFC01E60F13
S11301A0F71F240F2083AF5F01C0A0E0A031A8F2A5
S11301B0BF5FB031D0F3089546E061E080E390E0A2
S11301C00E942B2145E061E080E390E00E942B2116
S11301D043E061E080E390E00E942B2144E061E091
S11301E080E390E00E942B214CE061E089E390E001
S11301F00E942B2148E061E089E390E00E942B21DA
S113020044E061E089E390E00E942B214DE060E04E
S113021089E390E00E942B214BE060E089E390E0C9
S11302200E942B2147E060E089E390E00E942B21AB
S11302304DE06CE089E390E00E94152047E064E023
S113024089E390E00E9415204BE068E089E390E0A8
S11302500E94152040E060E086E390E00E942B219C
S113026041E060E086E390E00E942B2142E060E000
S113027086E390E00E942B2181E00E94602181E0CE
S11302800E946A2183E00E9474218DE690E00E941E
S11302907B2189E590E00E94822181E890E00E9420
S11302A08921E0910401F09105011082E09104019B
S11302B0F091050181E08183E0910401F091050151
S11302C092E0928383E0838320E424831582E09187
S11302D00201F09103012EE02083E0910201F091EC
S11302E0030120E1238328E024839183E091020128
S11302F0F091030182838BEF858380EF8683809165
S11303000401909105010E94E421809102019091E1
S113031003010E9435228FEF90E00E94A7220E94E1
S11303209A210E94A3220E94582110924D061092F5
S11303304803109249030E94880080910001882399
S113034019F00E94AB0008950E94A70108950F932D
S11303501F93CF93DF9300E010E01EC0902F990FFE
S1130360892F880F880F890F8C0F0E940021F801B4
S1130370E295F295F07FFE27E07FFE27E15BF94FDF
S1130380EC0FFD1F8083219602C0C0E0D0E0C03195
S1130390D10524F30F5F1F4F00311105B4F300E0C2
S11303A010E01DC08C2F90E1099F800D11248A5507
S11303B00E940021F801E295F295F07FFE27E07F8C
S11303C0FE27E25EFD4FEC0FFD1F8083219602C0E5
S11303D0C0E0D0E0C031D1052CF30F5F1F4F0131D5
S11303E01105B4F300E010E01CC08C2F90E1099FCC
S11303F0800D1124845B0E94002191E1909FF00103
S1130400919FF00D1124E25FFE4FEC0FFD1F8083DE
S1130410219602C0C0E0D0E0C131D10534F30F5FB2
S11304201F4F00311105B4F3DF91CF911F910F914C
S11304300895813178F4603168F4282F862F90E094
S113044030E1239F800D911D112461E08A559F4F57
S11304500E94E1200895803178F4613168F4282FF6
S1130460862F90E030E1239F800D911D112461E0DF
S1130470845B9E4F0E94E1200895CF93DF93809187
S11304804E06882309F43FC280914903811191C02B
S113049020914D0630E0A9014F5F5F4F80914803E2
S11304A090E0FA01E295F295F07FFE27E07FFE27C7
S11304B0E35BFA4FE80FF91FA081B901615071099C
S11304C0FB01E295F295F07FFE27E07FFE27E35BD8
S11304D0FA4FE80FF91FE081AE135CC0DA01A80FF0
S11304E0B91FFC01E60FF71FAE17BF072CF40E94DB
S11304F055120E949E120CC7EA17FB072CF40E94A7
S11305000C120E949E1204C7F9013296E295F295EC
S1130510F07FFE27E07FFE27E25EFD4FE80FF91F24
S1130520B081A1E1A49FF001A59FF00D1124E25F29
S1130530FE4FE80FF91F208130E02B0F311DFB0126
S1130540E295F295F07FFE27E07FFE27E25EFD4F05
S1130550E80FF91FE081A69FA001A79F500D112469
S1130560425F5E4FDA01A80FB91F8C9190E08E0FA5
S1130570911D281739072CF40E9455120E949E12CF
S1130580C7C6821793070CF0C3C60E940C120E94C0
S11305909E12BEC6AE1728F40E9455120E949E12E7
S11305A0B7C6EA1708F0B4C60E940C120E949E1245
S11305B0AFC6823009F091C020914D0630E0A90108
S11305C04F5F5F4F8091480390E0FA01E295F29506
S11305D0F07FFE27E07FFE27E35BFA4FE80FF91F69
S11305E0A081B90161507109FB01E295F295F07F98
S11305F0FE27E07FFE27E35BFA4FE80FF91FE08157
S1130600AE135CC0DA01A80FB91FFC01E60FF71F97
S1130610AE17BF072CF40E940C120E949E1278C6DB
S1130620EA17FB072CF40E9455120E949E1270C612
S1130630F9013296E295F295F07FFE27E07FFE27DE
S1130640E25EFD4FE80FF91FB081A1E1A49FF00124
S1130650A59FF00D1124E25FFE4FE80FF91F2081E2
S113066030E02B0F311DFB01E295F295F07FFE2760
S1130670E07FFE27E25EFD4FE80FF91FE081A69FB1
S1130680A001A79F500D1124425F5E4FDA01A80F0D
S1130690B91F8C9190E08E0F911D281739072CF407
S11306A00E940C120E949E1233C6821793070CF00C
S11306B02FC60E9455120E949E122AC6AE1728F415
S11306C00E940C120E949E1223C6EA1708F020C64C
S11306D00E9455120E949E121BC6813009F088C0E8
S11306E080914D06482F50E090914803892F90E067
S11306F0FC0131969A0122953295307F3227207F72
S11307003227235B3A4FD901AE0FBF1F6C9101977B
S1130710D901A80FB91F2C9162135BC0E40FF51F18
S1130720840F951FE817F90724F40E940C120E9405
S11307309E1220914D0630E08091480390E0DC0148
S11307401196B9016A0F7B1F0197A901480F591F20
S1130750461757072CF40E9455120E949E12D8C5C2
S1130760F901E295F295F07FFE27E07FFE27BF01B5
S1130770625E7D4FFB01EA0FFB1FC081E1E1E29F56
S1130780A001E39F500D1124425F5E4FFA01EA0F6E
S1130790FB1F208130E02C0F311DFB01E80FF91FF6
S11307A06081FA01E80FF91F808190E0860F911DA6
S11307B0281739072CF40E940C120E949E12A8C517
S11307C0821793070CF0A4C50E9455120E949E1232
S11307D09FC5621728F40E940C120E949E1298C5AD
S11307E0261708F095C50E9455120E949E1290C5C6
S11307F0833009F08DC580914D06482F50E09091CB
S11308004803892F90E0FC0131969A012295329594
S1130810307F3227207F3227235B3A4FD901AE0F36
S1130820BF1F6C910197D901A80FB91F2C916213B6
S11308305BC0E40FF51F840F951FE817F90724F434
S11308400E9455120E949E1220914D0630E0809124
S1130850480390E0DC011196B9016A0F7B1F0197F0
S1130860A901480F591F461757072CF40E940C1270
S11308700E949E124DC5F901E295F295F07FFE2784
S1130880E07FFE27BF01625E7D4FFB01EA0FFB1F85
S1130890C081E1E1E29FA001E39F500D1124425F7A
S11308A05E4FFA01EA0FFB1F208130E02C0F311D4F
S11308B0FB01E80FF91F6081FA01E80FF91F80813D
S11308C090E0860F911D281739072CF40E945512C9
S11308D00E949E121DC5821793070CF019C50E9431
S11308E00C120E949E1214C5621728F40E9455121D
S11308F00E949E120DC5261708F00AC50E940C120C
S11309000E949E1205C580914C04882309F473C289
S11309108091490381119CC020914D0630E0809163
S1130920480390E0BC016F5F7F4FF901E295F295B7
S1130930F07FFE27E07FFE27E35BFA4FE60FF71F09
S11309405081D9011196FD01E295F295F07FFE27C1
S1130950E07FFE27E35BFA4FE80FF91F4081541351
S11309606AC0260F371F8A0F9B1F2817390714F4F4
S11309700E949E1280914D0690E02091480330E041
S1130980A9014F5F5F4FDC01A40FB51FBC016F5F6E
S11309907F4FF901E60FF71FEA17FB072CF40E94BB
S11309A055120E949E12B4C4FC01E295F295F07FA8
S11309B0FE27E07FFE27E25EFD4FE40FF51FB081C6
S11309C0A9014E5F5F4FA1E1A89FF001A99FF00D1F
S11309D01124E25FFE4FE40FF51F408150E04B0FFE
S11309E0511DFC013296E295F295F07FFE27E07FDF
S11309F0FE27E25EFD4FE20FF31FE081A69FC001D8
S1130A00A79F900D1124825F9E4FDC01A20FB31F9C
S1130A108C9190E08E0F911D481759071CF40E9489
S1130A209E1276C4841795070CF072C40E94551266
S1130A300E949E126DC4541718F40E949E1268C43A
S1130A40451708F065C40E9455120E949E1260C4A6
S1130A50823009F097C020914D0630E0B901615011
S1130A6071098091480390E0FB01E295F295F07FD3
S1130A70FE27E07FFE27E35BFA4FE80FF91F508162
S1130A80DC011197F901E295F295F07FFE27E07FF2
S1130A90FE27E35BFA4FEA0FFB1F4081541365C046
S1130AA0860F971F2A0F3B1F8217930714F40E9487
S1130AB09E1220914D0630E0F90131978091480350
S1130AC090E0DF01A80FB91FAC0141505109B901F1
S1130AD0640F751F6A177B072CF40E9455120E943D
S1130AE09E1216C4DF01A295B295B07FBA27A07FEB
S1130AF0BA27A25EBD4FA80FB91FAC91C1E1CE9F2A
S1130B00B001CF9F700D1124625F7E4FFB01E80F8F
S1130B10F91F608170E06A0F711DD901A295B29529
S1130B20B07FBA27A07FBA27A25EBD4FA40FB51F1E
S1130B30AC91C29FF001C39FF00D1124E25FFE4F00
S1130B40E40FF51F808190E08A0F911D68177907E3
S1130B502CF40E9455120E949E12DAC3861797073E
S1130B600CF0D6C30E949E12D3C3451718F40E94FA
S1130B709E12CEC3541708F0CBC30E9455120E9494
S1130B809E12C6C3813009F099C040914D0650E0D1
S1130B90BA016F5F7F4F8091480390E0FB01E295BB
S1130BA0F295F07FFE27E07FFE27E35BFA4FE80F24
S1130BB0F91F3081DC011197FA01E295F295F07F7B
S1130BC0FE27E07FFE27E35BFA4FEA0FFB1F20813D
S1130BD0321367C0860F971F4A0F5B1F8417950750
S1130BE014F40E949E1220914D0630E0D901119612
S1130BF08091480390E0FD01E80FF91FAC014150DA
S1130C005109B901640F751F6E177F072CF40E94F8
S1130C1055120E949E127CC3F9013296E295F29518
S1130C20F07FFE27E07FFE27E25EFD4FE80FF91F0D
S1130C30E081C1E1CA9FB001CB9F700D1124625FB6
S1130C407E4FDB01A80FB91F6C9170E06E0F711D10
S1130C50F901E295F295F07FFE27E07FFE27E25E40
S1130C60FD4FE40FF51FE081C29FC001C39F900DAB
S1130C701124825F9E4FDC01A40FB51F8C9190E07C
S1130C808E0F911D681779071CF40E949E1240C3B1
S1130C90861797070CF03CC30E9455120E949E12BF
S1130CA037C3321718F40E949E1232C3231708F078
S1130CB02FC30E9455120E949E122AC3833009F04A
S1130CC027C340914D0650E02091480330E0B9011C
S1130CD06F5F7F4FFA01E295F295F07FFE27E07F88
S1130CE0FE27E35BFA4FE60FF71F9081DA011197B5
S1130CF0FD01E295F295F07FFE27E07FFE27E35B9E
S1130D00FA4FE20FF31F8081981368C0460F571FF4
S1130D102A0F3B1F4217530724F40E9455120E94C6
S1130D209E1280914D0690E04091480350E09A0154
S1130D302F5F3F4FDC01A20FB31FBC01615071094B
S1130D40FA01E60FF71FEA17FB071CF40E949E1234
S1130D50DFC2FC01E295F295F07FFE27E07FFE27DB
S1130D60E25EFD4FE20FF31FA0819A012E5F3F4F19
S1130D70C1E1C89FF001C99FF00D1124E25FFE4F4D
S1130D80E20FF31F208130E02A0F311DDB01A29511
S1130D90B295B07FBA27A07FBA27A25EBD4FA40F39
S1130DA0B51FAC91C69FF001C79FF00D1124E25FFF
S1130DB0FE4FE40FF51F808190E08A0F911D2817E4
S1130DC039072CF40E9455120E949E12A1C2821768
S1130DD093070CF09DC20E949E129AC2981728F4A1
S1130DE00E9455120E949E1293C2891708F090C265
S1130DF00E949E128DC280914A03882309F488C2FE
S1130E008091490381119BC020914D0630E080916F
S1130E10480390E0BC016F5F7F4FF901E295F295C2
S1130E20F07FFE27E07FFE27E35BFA4FE60FF71F14
S1130E305081D9011197FD01E295F295F07FFE27CB
S1130E40E07FFE27E35BFA4FE80FF91F408154135C
S1130E5069C0260F371F8A0F9B1F2817390714F400
S1130E600E949E1240914D0650E08091480390E00C
S1130E709C012F5F3F4FDA01A20FB31FBA016150EB
S1130E807109FC01E60FF71FEA17FB072CF40E9417
S1130E900C120E949E123CC2FA01E295F295F07F78
S1130EA0FE27E07FFE27E25EFD4FE20FF31FB081D5
S1130EB09C012E5F3F4FA1E1A49FF001A59FF00D7F
S1130EC01124E25FFE4FE20FF31F208130E02B0F6D
S1130ED0311DFB01E295F295F07FFE27E07FFE27AE
S1130EE0E25EFD4FE80FF91FE081A69FA001A79FD6
S1130EF0500D1124425F5E4FDA01A80FB91F8C9187
S1130F0090E08E0F911D281739071CF40E949E1241
S1130F10FFC1821793070CF0FBC10E940C120E94C0
S1130F209E12F6C1541718F40E949E12F1C145177F
S1130F3008F0EEC10E940C120E949E12E9C1823098
S1130F4009F099C060914D0670E0DB011196809123
S1130F504803482F50E0FD01E295F295F07FFE270B
S1130F60E07FFE27E35BFA4FE40FF51F2081EA01DF
S1130F702197FB01E295F295F07FFE27E07FFE27A3
S1130F80E35BFA4FEC0FFD1F9081291367C0CD017D
S1130F90840F951F6C0F7D1F8617970724F40E94FA
S1130FA00C120E949E1240914D0650E0DA011196F7
S1130FB08091480390E0FD01E80FF91FBC016150E6
S1130FC071099A01260F371F2E173F071CF40E9440
S1130FD09E129EC1FA013296E295F295F07FFE27A9
S1130FE0E07FFE27E25EFD4FE80FF91FE081C1E1DB
S1130FF0CA9F9001CB9F300D1124225F3E4FD9012F
S1131000A80FB91F2C9130E02E0F311DFA01E29583
S1131010F295F07FFE27E07FFE27E25EFD4FE60FAC
S1131020F71FA081C49FF001C59FF00D1124E25F5A
S1131030FE4FE60FF71F808190E08A0F911D28175D
S113104039072CF40E940C120E949E1261C182176F
S113105093070CF05DC10E949E125AC1291728F40F
S11310600E940C120E949E1253C1921708F050C1A4
S11310700E949E124DC1813009F09CC020914D0602
S113108030E0B9016F5F7F4F8091480390E0FB012E
S1131090E295F295F07FFE27E07FFE27E35BFA4FAF
S11310A0E80FF91F5081DC011196F901E295F295E0
S11310B0F07FFE27E07FFE27E35BFA4FEA0FFB1F7A
S11310C0408154136AC0860F971F2A0F3B1F821753
S11310D0930714F40E949E1280914D0690E0BC0187
S11310E06F5F7F4F2091480330E0DB01A20FB31FF5
S11310F0A9014F5F5F4FFC01E40FF51FEA17FB07DF
S11311002CF40E940C120E949E1202C1FC01E29572
S1131110F295F07FFE27E07FFE27E25EFD4FE40FAD
S1131120F51FB081A9014E5F5F4FA1E1A89FF001B7
S1131130A99FF00D1124E25FFE4FE40FF51F4081DB
S113114050E04B0F511DFC013296E295F295F07F71
S1131150FE27E07FFE27E25EFD4FE20FF31FE081F2
S1131160A69FC001A79F900D1124825F9E4FDC01B2
S1131170A20FB31F8C9190E08E0F911D4817590751
S11311802CF40E940C120E949E12C2C08417950770
S11311900CF0BEC00E949E12BBC0541718F40E94EB
S11311A09E12B6C0451708F0B3C00E940C120E94EC
S11311B09E12AEC0833009F0ABC020914D0630E0E2
S11311C0B901615071098091480390E0FB01E295F7
S11311D0F295F07FFE27E07FFE27E35BFA4FE80FEE
S11311E0F91F5081DC011197F901E295F295F07F26
S11311F0FE27E07FFE27E35BFA4FEA0FFB1F4081E7
S113120054137BC0860F971F2A0F3B1F8217930727
S113121014F40E949E12A0914D066A2F70E09B0167
S113122021503109B09148038B2F90E0E901C80F98
S1131230D91FAC0141505109FB01E40FF51FEC1714
S1131240FD072CF40E940C120E949E1261C0F90149
S1131250E295F295F07FFE27E07FFE27E25EFD4FE8
S1131260E80FF91FD081C1E1C29FF001C39FF00DC7
S113127011249F01225F3E4FF901E80FF91F2081DD
S113128030E02D0F311DFB01E295F295F07FFE2732
S1131290E07FFE27E25EFD4FE40FF51FE081C69F6D
S11312A0C001C79F900D1124825F9E4FEC01C40FB3
S11312B0D51F888190E08E0F911D281739071CF4E3
S11312C00E949E1225C0821793072CF40E940C12D0
S11312D00E949E121DC0A93068F4B83058F0909155
S11312E04F0780915207981798F40E940C120E949D
S11312F09E120EC00E949E120BC0451728F40E9435
S11313000C120E949E1204C0541710F40E949E12E4
S1131310DF91CF910895DF92EF92FF920F931F9385
S1131320CF93DF9330914803832F90E0DC01119633
S1131330A031B10564F4E0914D0620E1E29FF00193
S11313401124E35BFA4FEA0FFB1FF08001C0F12C7C
S1131350F092530720914D06422F50E0EA01219666
S1131360C031D1056CF4FE01E295F295F07FFE27C1
S1131370E07FFE27E35BFA4FE80FF91FE08001C02E
S1131380E12CE0925607BC01615071096AF0FA0140
S1131390E295F295F07FFE27E07FFE27E35BFA4FAC
S11313A0E60FF71FE08101C0E0E0E09351078A01F6
S11313B0015011096AF0F801E295F295F07FFE27D9
S11313C0E07FFE27E35BFA4FE80FF91FE08101C0DD
S11313D0E0E0E0935507293010F4383070F42830F9
S11313E010F0383060F4293010F4393058F02830D7
S11313F068F0393068F0D12C0FC0D12C0DC0DD2439
S1131400D3940AC06894DD24D1F806C0D12C04C05A
S11314100F2EF3E0DF2EF02D20914903211157C147
S1131420EF1528F4EF1418F40E949E1208C0FE165B
S113143030F4EE1620F40E940C120E949E12809149
S1131440560790915507981748F420915307281789
S113145028F40E9455120E949E126DC720915307D2
S1131460921307C0821305C00E940C120E949E12A0
S113147062C782137EC020914D0630E080914803FC
S113148090E0BC016F5F7F4FF901E295F295F07F28
S1131490FE27E07FFE27E25EFD4FE60FF71FD081B7
S11314A0DC011296C1E1C29FF001C39FF00D11242B
S11314B0E25FFE4FEA0FFB1F408150E04D0F511DCC
S11314C0F9013296E295F295F07FFE27E07FFE2740
S11314D0E25EFD4FE80FF91FD08189010F5F1F4FB6
S11314E0C09FF001C19FF00D1124E25FFE4FE80F91
S11314F0F91F808190E08D0F911D481759071CF446
S11315000E949E1218C7A90142955295507F5427F4
S1131510407F5427425E5D4FA40FB51FEC91F1E16B
S1131520F29FA001F39F500D11249A01225F3E4FB8
S1131530D901A60FB71F2C9130E02E0F311D821751
S113154093072CF40E9455120E949E12F4C681E067
S1131550D81205C00E9455120E949E12ECC6D110EA
S113156005C00E940C120E949E12E5C60E949E12A3
S1131570E2C6891356C020914D0630E0A9014150BE
S113158051098091480390E0FA01E295F295F07FC9
S1131590FE27E07FFE27E25EFD4FE80FF91F608122
S11315A0A1E1A49FF001A59FF00D1124E25FFE4F7D
S11315B0E80FF91F408150E0460F511DF9013296A2
S11315C0E295F295F07FFE27E07FFE27E25EFD4F75
S11315D0E80FF91FE0812F5F3F4FA29FB001A39F47
S11315E0700D11249B01225F3E4FD901A80FB91F32
S11315F08C9190E08E0F911D481759072CF40E948E
S113160055120E949E1297C6841795072CF40E94C7
S11316100C120E949E128FC60E940C120E949E12EF
S11316208AC6921388C640914D0650E09A01215013
S113163031098091480390E0F901E295F295F07F39
S1131640FE27E07FFE27E25EFD4FE80FF91F608171
S1131650A1E1A29FF001A39FF00D1124E25FFE4FD0
S1131660E80FF91F208130E0260F311DBA016F5FAA
S11316707F4FFC01319662957295707F7627607F6B
S11316807627625E7D4FE60FF71F60810296A49F66
S1131690F001A59FF00D1124E25FFE4FE80FF91F42
S11316A0808190E0860F911D281739072CF40E9441
S11316B00C120E949E123FC6821793071CF40E94CC
S11316C09E1239C60E940C120E949E1234C6223009
S11316D009F085C0FE01E295F295F07FFE27E07FD8
S11316E0FE27E35BFA4FE80FF91F3081F801E2951A
S11316F0F295F07FFE27E07FFE27E35BFA4FE80FC9
S1131700F91F208132135CC0BC016C0F7D1F9C014A
S1131710200F311F621773072CF40E940C120E94D1
S11317209E1209C6261737072CF40E9455120E94F0
S11317309E1201C6FA013296E295F295F07FFE27D9
S1131740E07FFE27E25EFD4FE80FF91F408161E173
S11317506C9FF0016D9FF00D1124E25FFE4FE80FC6
S1131760F91F208130E0240F311DF801E295F29534
S1131770F07FFE27E07FFE27E25EFD4FE80FF91FB2
S11317807081609FA001619F500D1124425F5E4FE4
S1131790FA01E80FF91F808190E0870F911D281747
S11317A039072CF40E940C120E949E12C4C58217A1
S11317B093070CF0C0C50E9455120E949E12BBC52F
S11317C0321728F40E940C120E949E12B4C52317EB
S11317D008F0B1C50E9455120E949E12ACC521307A
S11317E009F07DC0CA0182959295907F9827807FE9
S11317F09827835B9A4FFC01EA0FFB1F2081FC01B1
S1131800E60FF71F808128135BC0A40FB51F460F96
S1131810571FA417B50724F40E940C120E949E12AD
S113182020914D0630E08091480390E0DC01119650
S1131830B9016A0F7B1F0197A901480F591F461769
S113184057072CF40E9455120E949E1274C5F90188
S1131850E295F295F07FFE27E07FFE27BF01625EEE
S11318607D4FFB01EA0FFB1FC081E1E1E29FA00174
S1131870E39F500D1124425F5E4FFA01EA0FFB1FF4
S1131880208130E02C0F311DFB01E80FF91F60812E
S1131890FA01E80FF91F808190E0860F911D281747
S11318A039072CF40E940C120E949E1244C5821720
S11318B093070CF040C50E9455120E949E123BC52E
S11318C0281728F40E940C120E949E1234C5821715
S11318D008F031C50E9455120E949E122CC5233077
S11318E009F07DC0CA0182959295907F9827807FE8
S11318F09827835B9A4FFC01EA0FFB1F2081FC01B0
S1131900E60FF71F808128135BC0A40FB51F460F95
S1131910571FA417B50724F40E9455120E949E1263
S113192020914D0630E08091480390E0DC0111964F
S1131930B9016A0F7B1F0197A901480F591F461768
S113194057072CF40E940C120E949E12F4C4F90151
S1131950E295F295F07FFE27E07FFE27BF01625EED
S11319607D4FFB01EA0FFB1FC081E1E1E29FA00173
S1131970E39F500D1124425F5E4FFA01EA0FFB1FF3
S1131980208130E02C0F311DFB01E80FF91F60812D
S1131990FA01E80FF91F808190E0860F911D281746
S11319A039072CF40E9455120E949E12C4C4821757
S11319B093070CF0C0C40E940C120E949E12BBC478
S11319C0281728F40E9455120E949E12B4C482174C
S11319D008F0B1C40E940C120E949E12ACC4309153
S11319E04C04332309F448C2211191C0FA01E29551
S11319F0F295F07FFE27E07FFE27E35BFA4FEA0FC4
S1131A00FB1F3081FE01E295F295F07FFE27E07F17
S1131A10FE27E35BFA4FE80FF91F208132136AC0F7
S1131A204A0F5B1F8C0F9D1F4817590714F40E941F
S1131A309E12E0914D06F0E08091480390E09C01F5
S1131A402F5F3F4FDF01A20FB31FBF016F5F7F4FB7
S1131A50AC01460F571F4A175B072CF40E9455121E
S1131A600E949E1268C4AF0142955295507F54273C
S1131A70407F5427425E5D4FDA01A20FB31F4C91A1
S1131A809C012E5F3F4FC1E1CE9FD001CF9FB00D8F
S1131A901124A25FBE4FA20FB31F2C9130E0240F7C
S1131AA0311D3296E295F295F07FFE27E07FFE2706
S1131AB0E25EFD4FE80FF91FE081C69FA001C79FBA
S1131AC0500D1124425F5E4FDA01A80FB91F8C91AB
S1131AD090E08E0F911D281739071CF40E949E1266
S1131AE02AC4821793070CF026C40E9455120E9440
S1131AF09E1221C4321718F40E949E121CC423178C
S1131B0008F019C40E9455120E949E1214C4223077
S1131B1009F08EC0F801E295F295F07FFE27E07F90
S1131B20FE27E35BFA4FE80FF91F3081FA01E295D3
S1131B30F295F07FFE27E07FFE27E35BFA4FE60F86
S1131B40F71F2081321367C0800F911F460F571F64
S1131B508417950714F40E949E1220914D0630E0DC
S1131B60B901615071098091480390E0DB01A80F2D
S1131B70B91FAC0141505109F901E40FF51FEA17EF
S1131B80FB072CF40E9455120E949E12D4C3DB0161
S1131B90A295B295B07FBA27A07FBA27A25EBD4FA7
S1131BA0A80FB91FAC91C1E1C69FF001C79FF00D0A
S1131BB01124BF01625F7E4FFB01E80FF91F6081B2
S1131BC070E06A0F711DD901A295B295B07FBA2752
S1131BD0A07FBA27A25EBD4FA40FB51FAC91C29FD0
S1131BE0F001C39FF00D1124E25FFE4FE40FF51FD7
S1131BF0808190E08A0F911D681779072CF40E9468
S1131C0055120E949E1297C3861797070CF093C330
S1131C100E949E1290C3231718F40E949E128BC335
S1131C20321708F088C30E9455120E949E1283C383
S1131C30213009F08EC0FE01E295F295F07FFE2777
S1131C40E07FFE27E35BFA4FE80FF91F3081FA01CA
S1131C50E295F295F07FFE27E07FFE27E35BFA4FE3
S1131C60E60FF71F2081321367C08C0F9D1F460FAC
S1131C70571F8417950714F40E949E1220914D0655
S1131C8030E0E90121968091480390E0FE01E80FDD
S1131C90F91FAC0141505109B901640F751F6E174A
S1131CA07F072CF40E9455120E949E1244C3F9012E
S1131CB03296E295F295F07FFE27E07FFE27E25E02
S1131CC0FD4FE80FF91FE081A1E1AC9FB001AD9F8A
S1131CD0700D1124625F7E4FEB01C80FD91F68811C
S1131CE070E06E0F711DF901E295F295F07FFE2709
S1131CF0E07FFE27E25EFD4FE40FF51FE081A29F27
S1131D00C001A39F900D1124825F9E4FDC01A40F9C
S1131D10B51F8C9190E08E0F911D681779071CF404
S1131D200E949E1208C3861797070CF004C30E94F2
S1131D3055120E949E12FFC2321718F40E949E127E
S1131D40FAC2231708F0F7C20E9455120E949E128D
S1131D50F2C2233009F0EFC2FA01E295F295F07F66
S1131D60FE27E07FFE27E35BFA4FEA0FFB1F30817B
S1131D70F801E295F295F07FFE27E07FFE27E35B12
S1131D80FA4FE80FF91F2081321369C04A0F5B1F15
S1131D90800F911F4817590724F40E9455120E947E
S1131DA09E1220914D0630E08091480390E0AC01F2
S1131DB04F5F5F4FD901A40FB51FB901615071097D
S1131DC0FC01E60FF71FEA17FB071CF40E949E12A2
S1131DD0B2C2F901E295F295F07FFE27E07FFE277B
S1131DE0E25EFD4FE40FF51FB081AC014E5F5F4F23
S1131DF0A1E1A29FF001A39FF00D1124E25FFE4F29
S1131E00E40FF51F208130E02B0F311DFB01E2951B
S1131E10F295F07FFE27E07FFE27E25EFD4FE80F9C
S1131E20F91FE081A69FA001A79F500D1124425FD6
S1131E305E4FDA01A80FB91F8C9190E08E0F911DAF
S1131E40281739072CF40E9455120E949E1273C25F
S1131E50821793070CF06FC20E949E126CC2321755
S1131E6028F40E9455120E949E1265C2231708F09E
S1131E7062C20E949E125FC230914A03332309F466
S1131E805AC2211190C0FA01E295F295F07FFE2723
S1131E90E07FFE27E35BFA4FEA0FFB1F3081F80176
S1131EA0E295F295F07FFE27E07FFE27E35BFA4F91
S1131EB0E80FF91F2081321369C04A0F5B1F800F9E
S1131EC0911F4817590714F40E949E1220914D0641
S1131ED030E08091480390E0AC014F5F5F4FD9013F
S1131EE0A40FB51FB90161507109FC01E60FF71F7A
S1131EF0EA17FB072CF40E940C120E949E121BC2CC
S1131F00F901E295F295F07FFE27E07FFE27E25E7D
S1131F10FD4FE40FF51FB081AC014E5F5F4FA1E1AF
S1131F20A29FF001A39FF00D1124E25FFE4FE40F86
S1131F30F51F208130E02B0F311DFB01E295F29556
S1131F40F07FFE27E07FFE27E25EFD4FE80FF91FDA
S1131F50E081A69FA001A79F500D1124425F5E4F10
S1131F60DA01A80FB91F8C9190E08E0F911D2817EC
S1131F7039071CF40E949E12DEC1821793070CF0ED
S1131F80DAC10E940C120E949E12D5C1321718F4B5
S1131F900E949E12D0C1231708F0CDC10E940C12DA
S1131FA00E949E12C8C1223009F090C0FE01E29541
S1131FB0F295F07FFE27E07FFE27E35BFA4FE80F00
S1131FC0F91F3081FA01E295F295F07FFE27E07F58
S1131FD0FE27E35BFA4FE60FF71F2081321369C037
S1131FE08C0F9D1F460F571F8417950724F40E94DA
S1131FF00C120E949E1220914D0630E0B9016F5FD1
S11320007F4F8091480390E0DB01A80FB91FAC011A
S113201041505109F901E40FF51FEA17FB071CF4BD
S11320200E949E1288C1F9013296E295F295F07FE2
S1132030FE27E07FFE27E25EFD4FE80FF91FB08127
S1132040A1E1A69FF001A79FF00D1124BF01625FDB
S11320507E4FFB01E80FF91F608170E06B0F711D6B
S1132060F901E295F295F07FFE27E07FFE27E25E1C
S1132070FD4FE40FF51FE081A29FC001A39F900DC7
S11320801124825F9E4FDC01A40FB51F8C9190E058
S11320908E0F911D681779072CF40E940C120E9470
S11320A09E1249C1861797070CF045C10E949E12E3
S11320B042C1321728F40E940C120E949E123BC1A6
S11320C0231708F038C10E949E1235C1213009F04F
S11320D091C0FE01E295F295F07FFE27E07FFE2796
S11320E0E35BFA4FE80FF91F3081FA01E295F295AC
S11320F0F07FFE27E07FFE27E35BFA4FEA0FFB1F2A
S1132100208132136AC08C0F9D1F4A0F5B1F8417F6
S1132110950714F40E949E1280914D0690E0BC0134
S11321206F5F7F4F2091480330E0DB01A20FB31FA4
S1132130A9014F5F5F4FFC01E40FF51FEA17FB078E
S11321402CF40E940C120E949E12F5C0FC01E29530
S1132150F295F07FFE27E07FFE27E25EFD4FE40F5D
S1132160F51FB081A9014E5F5F4FA1E1A89FF00167
S1132170A99FF00D1124E25FFE4FE40FF51F40818B
S113218050E04B0F511DFC013296E295F295F07F21
S1132190FE27E07FFE27E25EFD4FE20FF31FE081A2
S11321A0A69FC001A79F900D1124825F9E4FDC0162
S11321B0A20FB31F8C9190E08E0F911D4817590701
S11321C02CF40E940C120E949E12B5C0841795072D
S11321D00CF0B1C00E949E12AEC0321718F40E94D7
S11321E09E12A9C0231708F0A6C00E940C120E94D8
S11321F09E12A1C0233009F09EC0F801E295F29529
S1132200F07FFE27E07FFE27E35BFA4FE80FF91F1C
S11322103081FA01E295F295F07FFE27E07FFE27F8
S1132220E35BFA4FE60FF71F2081321379C0800F6A
S1132230911F460F571F8417950714F40E949E128E
S1132240B0914D066B2F70E0EB012197A0914803EC
S11322508A2F90E0FE01E80FF91FAC0141505109AB
S11322609B01240F351F2E173F072CF40E940C12DC
S11322700E949E1260C0FE01E295F295F07FFE2757
S1132280E07FFE27E25EFD4FE80FF91FE08111E1D8
S11322901C9F90011D9F300D1124225F3E4FE901C8
S11322A0C80FD91F288130E02E0F311DFB01E295A4
S11322B0F295F07FFE27E07FFE27E25EFD4FE40FFC
S11322C0F51FE081169FC001179F900D1124825FB6
S11322D09E4FEC01C40FD51F888190E08E0F911D95
S11322E0281739071CF40E949E1225C082179307F1
S11322F02CF40E940C120E949E121DC0B93068F486
S1132300A83058F090914F0780915207981798F48D
S11323100E940C120E949E120EC00E949E120BC0BC
S1132320231728F40E940C120E949E1204C0321734
S113233010F40E949E12DF91CF911F910F91FF9094
S1132340EF90DF9008952091480330E0C901019691
S1132350803191056CF440914D0660E1469FA001E7
S11323601124435B5A4FFA01E80FF91F808101C021
S113237080E08093530780914D0690E0AC014F5F5D
S11323805F4F403151056CF4FA01E295F295F07F0C
S1132390FE27E07FFE27E35BFA4FE20FF31F408145
S11323A001C040E040935607A9014150510972F021
S11323B0BC0162957295707F7627607F7627635B98
S11323C07A4FFB01E40FF51F408101C040E04093C8
S11323D0510701976AF082959295907F9827807FA4
S11323E09827835B9A4FFC01E20FF31F808101C0A1
S11323F080E08093550780914B03823019F40E944A
S1132400A3150895813019F40E943D020895833084
S113241011F40E948B0908950E945C211092060118
S113242010920701109208011092090110920A01FA
S113243010920B0110920C0110920D010E94582170
S113244003C083E00E949A1F80910A0190910B01BE
S1132450A0910C01B0910D014797A105B10588F336
S11324608091060190910701A0910801B0910901A2
S11324704797A105B10528F380914903813091F074
S113248028F0823059F0833029F0089583E0809356
S11324904903089582E080934903089581E080937D
S11324A0490308951092490308950E945C211092F3
S11324B0060110920701109208011092090110926E
S11324C00A0110920B0110920C0110920D010E944E
S11324D0582103C082E00E949A1F80910A019091C2
S11324E00B01A0910C01B0910D014797A105B10515
S11324F088F38091060190910701A0910801B091A1
S113250009014797A105B10528F38091490381305A
S113251051F028F0823059F0833069F0089581E059
S113252080934903089582E080934903089583E0EA
S113253080934903089510924903089580910001FE
S1132540882309F470C080912E03833019F52091FB
S11325504D0630E04091480350E0B901660F771F03
S1132560C901880F991F880F991F880F991F860F1B
S1132570971FF901E295F295F07FFE27E07FFE2791
S1132580E35BFA4FE40FF51F6081840F951F0E94EF
S1132590E12049C020914D06222321F18091480376
S11325A0882301F130E090E0F901E295F295F07FA3
S11325B0FE27E07FFE27E35BFA4FE80FF91F6081F7
S11325C06F5F6083A901440F551F220F331F220F31
S11325D0331F220F331F240F351F820F931F0E94B6
S11325E0E12021C030E08091480390E0F901E295B8
S11325F0F295F07FFE27E07FFE27E35BFA4FE80FBA
S1132600F91F4FEF4083A901440F551F220F331FB9
S1132610220F331F220F331F240F351F6FEF820F3A
S1132620931F0E94E1200E945C21109206011092E7
S11326300701109208011092090110920A011092E8
S11326400B0110920C0110920D010E94582103C03D
S113265080E00E949A1F80910A0190910B01A09141
S11326600C01B0910D018C359105A105B10580F3E4
S11326708091060190910701A0910801B091090190
S11326808C359105A105B10518F380914903811199
S113269006C0809148038F5F80934803089581307A
S11326A031F480914D068F5F80934D0608958230FA
S11326B031F4809148038150809348030895833016
S11326C029F480914D06815080934D0608951F93FF
S11326D0CF93DF93C82F162FD42F0E9490210E94EE
S11326E09C22C13041F138F0C23009F451C0C330EA
S11326F009F47BC0A7C080E090E00E94D62280E06D
S11327000E94A92140E066E070E080E390E00E942E
S11327103E2160E0812F90E00E94B42240E063E01B
S113272070E080E390E00E943E2161E08D2F90E014
S11327300E94B422AAC041E066E070E080E390E029
S11327400E943E218BE99EE10E94B321812F0E94C9
S11327509F2185EA9EE10E94B82180E00E94A92180
S113276080E090E00E94D62240E065E070E080E3E3
S113277090E00E943E2140E063E070E080E390E05E
S11327800E943E2161E08D2F90E00E94B4227DC022
S113279041E066E070E080E390E00E943E218BE936
S11327A09EE10E94B321812F0E949F2185EA9EE130
S11327B00E94B82180E00E94A92180E090E00E945C
S11327C0D62240E065E070E080E390E00E943E2184
S11327D040E063E070E080E390E00E943E2161E02D
S11327E08D2F90E00E94B42250C040E066E070E07B
S11327F080E390E00E943E2160E0812F90E00E94FF
S1132800B42241E063E070E080E390E00E943E2166
S113281080EA9EE10E94B3218D2F0E949F218AEAC3
S11328209EE10E94B82180E00E94A92180E090E00E
S11328300E94D62240E064E070E080E390E00E94D1
S11328403E2123C080E090E00E94D62280E00E94D6
S1132850A92140E064E070E080E390E00E943E2122
S113286040E063E070E080E390E00E943E2140E0BD
S113287066E070E080E390E00E943E2140E065E085
S113288070E080E390E00E943E210E949A210E9421
S1132890A322DF91CF911F91089540E060E084E08E
S11328A00E94671308950E942D20855691098C3D3E
S11328B02AE0920720F08C3D9A4018F4089580E0B5
S11328C0089581E00895CF93DF93D82FC62F809188
S11328D0490381111BC080914C04882319F08D2F6A
S11328E00E94190280914E06882329F061E06C0F42
S11328F08D2F0E942B0280914A03882309F458C02B
S11329006C2F81E08D0F0E94190252C08130D9F4DE
S113291080914C04882329F061E06C0F8D2F0E9474
S11329202B0280914E06882329F06C2F81E08D0FB5
S11329300E94190280914A038823D1F16C2F8D2FB4
S11329400E942B0235C08230C9F480914C04882344
S113295021F081E08D0F0E94190280914E06882398
S113296021F06C2F8D2F0E942B0280914A03882323
S1132970F9F06C2F8D2F0E9419021AC08330C1F414
S113298080914C04882319F08D2F0E942B02809192
S11329904E06882321F06C2F8D2F0E9419028091FE
S11329A04A03882329F061E06C0F8D2F0E942B02CB
S11329B0DF91CF9108954DE06CE089E390E00E94AF
S11329C0531480934C044BE068E089E390E00E9448
S11329D0531480934E0647E064E089E390E00E943C
S11329E0531480934A0380910001882351F080910D
S11329F02E03833031F06091480380914D060E948C
S1132A006314089580914D068830D9F48091480369
S1132A108830B9F480912E03833098F48F5F8093CB
S1132A202E0320E335E740E050E060E070E080E012
S1132A3090E00E94322310924D06109248031092A7
S1132A40490308950E945C21109206011092070127
S1132A50109208011092090110920A0110920B01C0
S1132A6010920C0110920D010E94582103C081E0C4
S1132A700E949A1F80910A0190910B01A0910C0170
S1132A80B0910D018E97A105B10588F380910601DF
S1132A9090910701A0910801B09109018E97A105B9
S1132AA0B10528F380914903811104C082E0809329
S1132AB049030895833021F481E080934903089504
S1132AC0823019F4109249030895813019F483E097
S1132AD08093490308950E94221504C00E94DB14C8
S1132AE00E94A31180914D06882321F08091480310
S1132AF08111F4CF089580914903811107C0609139
S1132B00480380914D060E942B020895823041F4BF
S1132B10609148036F5F80914D060E942B020895D7
S1132B20813039F46091480380914D060E94190266
S1132B300895833039F480914D06609148038F5F86
S1132B400E941902089580914C04811105C00E94CD
S1132B500C120E949E12089580914A03811105C0AF
S1132B600E9455120E949E12089580914E06811172
S1132B7002C00E949E1208950E9422150E94DB1436
S1132B8080914A0390914C04980F890F80934B03D2
S1132B9038C020914D0630E08091480390E0F9015F
S1132BA0E295F295F07FFE27E07FFE27DF01A35B2D
S1132BB0BB4FA80FB91F41E04C93E35BFA4FE80FFA
S1132BC0F91F60816F5F6083A901440F551F220FB5
S1132BD0331F220F331F220F331F240F351F820F81
S1132BE0931F0E94E1200E94A3150E947B150E945E
S1132BF0DB1480914A0390914C04980F890F8093C1
S1132C004B0380914B03823021F20895EF92FF929F
S1132C100F931F93CF93DF93E09148032E2F30E05F
S1132C20E9012196C031D10564F4E0914D0680E1BB
S1132C30E89FF0011124E45BFC4FEC0FFD1FF080D2
S1132C4002C0FF24FA94F092500780914D0690E060
S1132C50AC014F5F5F4F403151056CF4FA01E295CE
S1132C60F295F07FFE27E07FFE27E45BFC4FE20F46
S1132C70F31F008101C00FEF00935407B9016150A5
S1132C8071096AF0FC01E295F295F07FFE27E07F7E
S1132C90FE27E45BFC4FE60FF71F108101C01FEF16
S1132CA010934F07FC0131976AF0DF01A295B295AA
S1132CB0B07FBA27A07FBA27A45BBC4FA20FB31F73
S1132CC0EC9002C0EE24EA94E0925207B0914C04D6
S1132CD0B13009F06BC1B0914903B11157C0FC0187
S1132CE0E295F295F07FFE27E07FFE27E35BFB4F42
S1132CF0EC0FFD1F6081613029F40E9455120E947F
S1132D009E1237C4FA01E295F295F07FFE27E07F28
S1132D10FE27E35BFB4FE20FF31F6081613019F480
S1132D200E949E1226C4FA01E295F295F07FFE27D6
S1132D30E07FFE27E35BFA4FE20FF31F20818295C9
S1132D409295907F9827807F9827835B9A4FC80F2E
S1132D50D91F888128130DC0F01618F40E949E1202
S1132D6008C4F01608F405C40E9455120E949E126D
S1132D7000C4281728F40E9455120E949E12F9C319
S1132D80821708F0F6C30E949E12F3C3B13009F013
S1132D9058C0FA01E295F295F07FFE27E07FFE2706
S1132DA0E35BFB4FE20FF31FE081E13029F40E9463
S1132DB055120E949E12DDC3FC01E295F295F07F4C
S1132DC0FE27E07FFE27E35BFB4FE60FF71FE08162
S1132DD0E13019F40E949E12CCC3FA01E295F295F7
S1132DE0F07FFE27E07FFE27E35BFA4FE20FF31F3D
S1132DF0208182959295907F9827807F9827835B86
S1132E009A4FFC01E60FF71F808128130DC00117AC
S1132E1018F40E949E12ADC3011708F4AAC30E94BD
S1132E2055120E949E12A5C3281718F40E949E12E0
S1132E30A0C3821708F09DC30E9455120E949E12DF
S1132E4098C3B23009F057C0DC01A295B295B07FA7
S1132E50BA27A07FBA27A35BBB4FA60FB71F4C911D
S1132E60413029F40E9455120E949E1282C3DF0150
S1132E70A295B295B07FBA27A07FBA27A35BBB4FB8
S1132E80A20FB31F4C91413019F40E949E1271C3DA
S1132E90E295F295F07FFE27E07FFE27E35BFA4F91
S1132EA0E20FF31F208182959295907F9827807F6F
S1132EB09827835B9A4FFC01E60FF71F8081281344
S1132EC00DC0011718F00E949E1253C3011708F099
S1132ED050C30E9455120E949E124BC3281728F417
S1132EE00E9455120E949E1244C3821708F041C3E7
S1132EF00E949E123EC3B33009F03BC3AF0142951A
S1132F005295507F5427407F5427435B5B4F420FB9
S1132F10531FDA014C91413029F40E9455120E944A
S1132F209E1227C3AC0142955295507F5427407F8F
S1132F305427435B5B4F4C0F5D1FDA014C914130CA
S1132F4019F40E949E1215C3E295F295F07FFE27B4
S1132F50E07FFE27E35BFA4FE20FF31F20818295A7
S1132F609295907F9827807F9827835B9A4FC80F0C
S1132F70D91F888128130DC0FE1428F40E9455120D
S1132F800E949E12F6C2FE1408F4F3C20E949E121E
S1132F90F0C2281718F40E949E12EBC2821708F0A0
S1132FA0E8C20E9455120E949E12E3C2B0914E06DE
S1132FB0B13009F071C1B0914903B1115DC0EF01A5
S1132FC0C295D295D07FDC27C07FDC27C35BDB4F63
S1132FD0C20FD31F8881813029F40E9455120E94A8
S1132FE09E12C7C2EA01C295D295D07FDC27C07F6A
S1132FF0DC27C35BDB4FC20FD31F8881813029F4E8
S11330000E940C120E949E12B4C2EA01C295D2958B
S1133010D07FDC27C07FDC27C35BDA4FC20FD31F0E
S11330209881E295F295F07FFE27E07FFE27E35B2F
S1133030FA4FE20FF31F808198130FC0E01628F4B3
S11330400E940C120E949E1294C2E01608F491C2CF
S11330500E9455120E949E128CC2891728F40E9465
S11330600C120E949E1285C2981708F082C20E9418
S113307055120E949E127DC2B13009F055C0FC0168
S1133080E295F295F07FFE27E07FFE27E35BFB4F9E
S1133090EC0FFD1F2081213029F40E9455120E945B
S11330A09E1267C2FC01E295F295F07FFE27E07F55
S11330B0FE27E35BFB4FE60FF71F2081213029F445
S11330C00E940C120E949E1254C282959295907F87
S11330D09827807F9827835B9A4FC80FD91F288130
S11330E0FC01E60FF71F808128130FC0F11628F4A6
S11330F00E940C120E949E123CC2F11608F439C2BE
S11331000E9455120E949E1234C2821728F40E9413
S113311055120E949E122DC2281708F02AC20E943E
S11331200C120E949E1225C2B23009F05DC0EA0161
S1133130C295D295D07FDC27C07FDC27C35BDB4FF1
S1133140C20FD31F8881813029F40E9455120E9436
S11331509E120FC2EF01C295D295D07FDC27C07FAB
S1133160DC27C35BDB4FC20FD31F8881813029F476
S11331700E940C120E949E12FCC1EA01C295D295D3
S1133180D07FDC27C07FDC27C35BDA4FC20FD31F9D
S11331909881E295F295F07FFE27E07FFE27E35BBE
S11331A0FA4FE20FF31F808198130FC0E01628F442
S11331B00E9455120E949E12DCC1E01608F4D9C187
S11331C00E940C120E949E12D4C1891728F40E94F6
S11331D055120E949E12CDC1981708F0CAC10E94D0
S11331E00C120E949E12C5C1B33009F0C2C1FC0189
S11331F0E295F295F07FFE27E07FFE27E35BFB4F2D
S1133200E60FF71F2081213029F40E9455120E94F5
S11332109E12AFC1FC01E295F295F07FFE27E07F9C
S1133220FE27E35BFB4FEC0FFD1F2081213029F4C7
S11332300E940C120E949E129CC182959295907FCE
S11332409827807F9827835B9A4FFC01E60FF71F2E
S11332502081C80FD91F888128130FC01F1528F09B
S11332600E9455120E949E1284C11F1508F081C14C
S11332700E940C120E949E127CC1821728F40E94A4
S113328055120E949E1275C1281708F072C10E943F
S11332900C120E949E126DC1B0914A03B13009F024
S11332A068C1B0914903B11158C0AF01429552951C
S11332B0507F5427407F5427435B5B4F420F531F7B
S11332C0DA014C91413019F40E949E1252C1AC01B2
S11332D042955295507F5427407F5427435B5B4F60
S11332E04C0F5D1FDA014C91413029F40E940C12FD
S11332F00E949E123EC182959295907F9827807F6E
S11333009827835B9A4FC80FD91F9881E295F2954D
S1133310F07FFE27E07FFE27E35BFA4FE20FF31F07
S1133320808198130DC0EF1428F40E940C120E949F
S11333309E121FC1EF1408F41CC10E949E1219C1F1
S1133340981718F40E949E1214C1891708F011C12D
S11333500E940C120E949E120CC1B13009F057C099
S1133360FC01E295F295F07FFE27E07FFE27E35B08
S1133370FB4FEC0FFD1F6081613019F40E949E1217
S1133380F8C0FA01E295F295F07FFE27E07FFE2770
S1133390E35BFB4FE20FF31F6081613029F40E946D
S11333A00C120E949E12E5C082959295907F9827F8
S11333B0807F9827835B9A4FC80FD91F9881FA01A1
S11333C0E295F295F07FFE27E07FFE27E35BFA4F5C
S11333D0E20FF31F808198130DC0F01628F40E94A9
S11333E00C120E949E12C5C0F01608F4C2C00E94BE
S11333F09E12BFC0981728F40E940C120E949E12BD
S1133400B8C0891708F0B5C00E949E12B2C0B2308D
S113341009F058C0FA01E295F295F07FFE27E07FAB
S1133420FE27E35BFB4FE20FF31FE081E13019F469
S11334300E949E129EC0FC01E295F295F07FFE2749
S1133440E07FFE27E35BFB4FE60FF71FE081E130EF
S113345029F40E940C120E949E128BC082959295B0
S1133460907F9827807F9827835B9A4FFC01E60F13
S1133470F71F9081FA01E295F295F07FFE27E07F35
S1133480FE27E35BFA4FE20FF31F808198130DC010
S1133490011728F40E940C120E949E126AC00117A0
S11334A008F467C00E949E1264C0891728F40E9421
S11334B00C120E949E125DC0981708F05AC00E9418
S11334C09E1257C0B33009F054C0EC01C295D29596
S11334D0D07FDC27C07FDC27C35BDB4FC60FD71F41
S11334E04881413019F40E949E1243C0EF01C295F5
S11334F0D295D07FDC27C07FDC27C35BDB4FC20FB4
S1133500D31F4881413029F40E940C120E949E125C
S113351030C082959295907F9827807F9827835B0F
S11335209A4FEC01C60FD71F9881E295F295F07F70
S1133530FE27E07FFE27E35BFA4FE20FF31F808153
S113354098130CC01E1528F40E940C120E949E129F
S113355010C01E1570F00E949E120BC0981728F41C
S11335600E940C120E949E1204C0891710F40E943B
S11335709E12DF91CF911F910F91FF90EF900895CC
S11335809F92AF92BF92CF92DF92EF92FF920F93EE
S11335901F93CF93DF932091480330E0D901119614
S11335A0A031B10564F4E0914D0680E1E89FF0019B
S11335B01124E45BFC4FEA0FFB1FF08002C0FF24E0
S11335C0FA94F092500780914D0690E0AC014F5F61
S11335D05F4F403151056CF4FA01E295F295F07FAA
S11335E0FE27E07FFE27E45BFC4FE20FF31FC08061
S11335F002C0CC24CA94C0925407F90131976AF0EE
S1133600EC01C295D295D07FDC27C07FDC27C45B58
S1133610DC4FCE0FDF1FD88002C0DD24DA94D092B5
S11336204F07BC01615071096AF0EB01C295D29554
S1133630D07FDC27C07FDC27C45BDC4FC20FD31FE5
S1133640E88002C0EE24EA94E0925207A031B1056A
S11336506CF4EC01C295D295D07FDC27C07FDC27C7
S1133660C35BDA4FCA0FDB1FA88002C0AA24AA9446
S1133670A09253074031510574F48A0102951295C2
S1133680107F1027007F1027035B1A4F020F131FB0
S1133690E801988002C099249A9490925607FF23D7
S11336A074F08C0102951295107F1027007F10276B
S11336B0035B1A4F0E0F1F1FE801B88002C0BB2422
S11336C0BA94B0925107772374F08B010295129546
S11336D0107F1027007F1027035B1A4F020F131F60
S11336E0E801188101C01FEF1093550700914903A9
S11336F00111B7C0BC0162957295707F7627607F17
S11337007627635B7B4FA60FB71F6C91613031F452
S113371081E080934E060E940616E3C2FA01E29508
S1133720F295F07FFE27E07FFE27E35BFB4FE20F7D
S1133730F31F4081413031F481E080934A030E94B9
S11337400616CFC282959295907F9827807F9827FE
S1133750835B9B4FFC01E20FF31F8081813029F4CE
S113376080934C040E940616BCC29A1438F4911635
S113377028F40E9455120E949E12B3C2A91428F480
S1133780A11618F40E949E12ACC2191538F41A1529
S113379028F40E940C120E949E12A3C2A91032C0E7
S11337A0911230C0CF1438F4CE1428F40E9455126C
S11337B00E949E1296C2FC1428F4FE1418F40E946F
S11337C09E128FC2EC1438F4EF1428F40E940C12E9
S11337D00E949E1286C2FC1007C0CE1005C00E9433
S11337E055120E949E127DC2FC1411F0CE1005C029
S11337F00E9455120E949E1274C2FE1072C20E9450
S11338009E126FC2A9100DC0FC1418F40E949E12DF
S113381068C2FC1408F465C20E9455120E949E12EC
S113382060C291120FC0EC1428F40E940C120E9482
S11338309E1257C2EC1408F454C20E9455120E94FE
S11338409E124FC2A1124DC2EF1418F00E949E1294
S113385048C2EF1408F045C20E940C120E949E1246
S113386040C2013009F0B6C042955295507F5427AA
S1133870407F5427435B5B4F240F351FE9012881A8
S1133880213031F481E080934E060E94061629C24D
S11338909C0122953295307F3227207F3227235B8B
S11338A03B4FE20FF31F2081213031F481E08093FC
S11338B04A030E94061615C282959295907F982716
S11338C0807F9827835B9B4FA80FB91F8C91813011
S11338D029F480934C040E94061603C29A1428F417
S11338E09B1418F40E949E12FCC1A91438F4AB1462
S11338F028F40E940C120E949E12F3C1B91438F4E9
S1133900BA1428F40E9455120E949E12EAC1A9100A
S113391032C09B1030C0CF1428F4CD1418F40E9488
S11339209E12DFC1FC1438F4FD1428F40E940C121A
S11339300E949E12D6C1DC1438F4DF1428F40E94CD
S113394055120E949E12CDC1FC1007C0CD1005C0B7
S11339500E9455120E949E12C4C1FC1411F0CD1095
S113396003C00E949E12BDC1FD10BBC10E9455122E
S11339700E949E12B6C1A9100DC0FC1428F40E9426
S11339800C120E949E12ADC1FC1408F4AAC10E943C
S11339909E12A7C19B100DC0DC1428F40E9455127E
S11339A00E949E129EC1DC1408F49BC10E949E12C8
S11339B098C1AB1096C1FD1428F40E940C120E9409
S11339C09E128FC1FD1408F48CC10E9455120E94EE
S11339D09E1287C1023009F0D3C082959295907FE0
S11339E09827807F9827835B9B4FE80FF91F80817E
S11339F0813029F480934E060E94061625C0FB01EF
S1133A00E295F295F07FFE27E07FFE27E35BFB4F14
S1133A10E20FF31F8081813029F480934A030E94CE
S1133A20061612C042955295507F5427407F542762
S1133A30435B5B4FFA01E20FF31F8081813021F475
S1133A4080934C040E94061680915607909151076A
S1133A50891748F420915507821728F40E940C1204
S1133A600E949E123EC1981738F420915507921770
S1133A7018F40E949E1235C120915507281738F476
S1133A80291728F40E9455120E949E122AC18913F4
S1133A903CC082133AC09091540780914F07981705
S1133AA048F420915207921728F40E940C120E94A5
S1133AB09E1217C1891738F420915207821718F4FF
S1133AC00E949E120EC120915207291738F428171C
S1133AD028F40E9455120E949E1203C1981307C035
S1133AE0821305C00E9455120E949E12FAC08217CA
S1133AF011F0921305C00E9455120E949E12F1C04B
S1133B009813EFC00E949E12ECC0891311C09091CB
S1133B104F0780915407891718F00E949E12E1C044
S1133B20891708F0DEC00E940C120E949E12D9C0B0
S1133B30821313C09091520780915407891728F07B
S1133B400E9455120E949E12CCC0891708F0C9C069
S1133B500E940C120E949E12C4C09213C2C0909183
S1133B604F0780915207981718F40E949E12B9C00B
S1133B70981708F4B6C00E9455120E949E12B1C054
S1133B80033009F0AEC062957295707F7627607F2E
S1133B907627635B7B4F260F371FE901288121308D
S1133BA031F481E080934E060E9406169AC09C016F
S1133BB022953295307F3227207F3227235B3B4F7B
S1133BC0A20FB31F2C91213031F481E080934A037A
S1133BD00E94061686C082959295907F9827807FD2
S1133BE09827835B9B4FE80FF91F8081813029F46C
S1133BF080934C040E94061674C01A1528F41B15F1
S1133C0018F40E949E126DC0A11628F40E94551249
S1133C100E949E1266C0B11638F4BA1428F40E94A9
S1133C200C120E949E125DC0A11232C0B11230C0AB
S1133C30EF1428F4ED1418F40E949E1252C0FD14DF
S1133C4038F4FE1428F40E9455120E949E1249C0B2
S1133C50DE1438F4DF1428F40E940C120E949E1221
S1133C6040C0FE1007C0DE1005C00E9455120E941D
S1133C709E1237C0FE1411F0FD1005C00E945512AB
S1133C800E949E122EC0FE102CC00E949E1229C0BB
S1133C90A1120CC0EF1428F00E9455120E949E122B
S1133CA020C0EF14F0F40E949E121BC0B1120CC08D
S1133CB0DE1428F40E940C120E949E1212C0DE141C
S1133CC080F00E949E120DC0A1120BC0EF1428F0C8
S1133CD00E9455120E949E1204C0EF1410F40E9418
S1133CE09E12DF91CF911F910F91FF90EF90DF9083
S1133CF0CF90BF90AF909F90089590914C04809185
S1133D004E06890F90914A03890F80934B038111CA
S1133D1003C00E94C01A0895813019F40E94061647
S1133D200895823019F40E94A3150895833011F484
S1133D300E94BC15089590B380E4892780BB089540
S1133D4090B388E0892780BB089590B380E48927E5
S1133D5080BB089590B388E0892780BB08954F9273
S1133D605F926F927F928F929F92AF92BF92CF9207
S1133D70DF92EF92FF929B01AC0160E070E088E477
S1133D8093E40E9487236B017C01209137033091D7
S1133D9038034091390350913A030E9488234B0120
S1133DA05C016093370370933803809339039093D5
S1133DB03A0320913B0330913C0340913D035091E1
S1133DC03E03C701B6010E9487232B013C012AE070
S1133DD037ED43E25CE3C501B4010E9423259B0156
S1133DE0AC01C701B6010E9488234B015C012AE0A3
S1133DF037ED43E25CE3C301B2010E9423259B013A
S1133E00AC01C501B4010E948823C0923B03D09247
S1133E103C03E0923D03F0923E030E946624CB01F2
S1133E20FF90EF90DF90CF90BF90AF909F908F90D6
S1133E307F906F905F904F9008954F925F926F9232
S1133E407F928F929F92AF92BF92CF92DF92EF9226
S1133E50FF929B01AC0160E070E088E493E40E946F
S1133E6087236B017C01209133033091340340910B
S1133E703503509136030E9488234B015C01609303
S1133E803303709334038093350390933603209166
S1133E902F03309130034091310350913203C70115
S1133EA0B6010E9487232B013C012AE037ED43E24F
S1133EB05CE3C501B4010E9423259B01AC01C70149
S1133EC0B6010E9488234B015C012AE037ED43E2EE
S1133ED05CE3C301B2010E9423259B01AC01C5012F
S1133EE0B4010E948823C0922F03D0923003E09241
S1133EF03103F09232030E946624CB01FF90EF90CD
S1133F00DF90CF90BF90AF909F908F907F906F90F5
S1133F105F904F900895262F30E08217930730F07A
S1133F20242F30E02817390718F00895862F0895B4
S1133F30842F08958F929F92AF92BF92CF92DF9277
S1133F40EF92FF920F931F93CF93DF93C82F60914B
S1133F5006017091070180910801909109010E9466
S1133F60952420E030E040ED51E40E94F42320E069
S1133F7030E040E752E40E9423256B017C0160910C
S1133F800A0170910B0180910C0190910D010E9426
S1133F90952420E030E040ED51E40E94F42320E039
S1133FA030E040E752E40E9423254B015C01C70145
S1133FB0B6010E94AF1E7C01C501B4010E941D1F01
S1133FC08C014FEF60E0C7010E948B1FD82F4FEF89
S1133FD060E0C8010E948B1F482F6D2F8C2F0E9418
S1133FE0671324E630E040E050E060E070E080E0F9
S1133FF090E00E943223DF91CF911F910F91FF90A7
S1134000EF90DF90CF90BF90AF909F908F900895E6
S113401082B76091450370E0762F6627680F711DA3
S1134020072E000C880B990B08950F931F93CF93C1
S11340308C01C42F462F61E00E942B214C2F60E09D
S1134040C8010E942B216C2F70E040E0C8010E943F
S11340503E21CF911F910F910895FF920F931F93CB
S1134060CF93DF938C01F42EC62FD0E041E0BE0144
S11340700E943E212AE030E040E050E060E070E041
S113408080E090E00E94E32240E0BE01C8010E946B
S11340903E21CF2DD0E0BE01C8010E9434218823E7
S11340A0C1F31092450380E090E00E94B32180E0C8
S11340B00E94A9210E949021BE01C8010E943421BE
S11340C08111FACF0E949A210E9408200E9495240F
S11340D02DEB37E346E057E30E9423250E94662434
S11340E00E94952428E23EE74CE05DE30E942325EC
S11340F020E030E040E251E40E94232520E030E05B
S113410040E05FE30E9423250E946624CB01DF91F7
S1134110CF911F910F91FF9008950E9402158091F5
S11341202E03833011F40E946B150E94DB140E944D
S11341307D1E0E944D1424EF31E040E050E060E029
S113414070E080E090E00E94322308950E94A31161
S11341500E94DB1408950E94DC0060E070E086E3B6
S113416090E00E943421882361F061E070E086E3EE
S113417090E00E943421811104C081E08093000109
S113418011C060E070E086E390E00E943421811168
S113419009C061E070E086E390E00E94342181115F
S11341A01092000180910001882319F00E948D2053
S11341B0D4CF811103C00E94A620CFCF0E944D14FA
S11341C0CCCFF999FECF81BD60BD8FB384608FBB26
S11341D08FB382608FBB08950F931F93CF93DF93A8
S11341E0EC018B0105C06FEFCE010E94E120219606
S11341F0C017D107C0F3DF91CF911F910F9108959C
S1134200F999FECF81BD8FB381608FBB80B50895CE
S1134210FB012181211110C0FC01418121E030E02A
S1134220FB01008002C0220F331F0A94E2F720959D
S11342302423FC0121830895FC01418121E030E025
S1134240FB01008002C0220F331F0A94E2F7242BE3
S1134250FC0121830895E0E0F0E06183408360E0A5
S113426070E00E9408210895FC01808190E002C062
S1134270959587956A95E2F781700895FC01413020
S113428059F4228181E090E002C0880F991F6A9559
S1134290E2F7822B82830895928121E030E002C00C
S11342A0220F331F6A95E2F720952923228308956C
S11342B08FB780688FBF08958FB78F778FBF0895AA
S11342C085B78E7F85BF85B7826085BF8BB78064D5
S11342D08BBF089585B78B7F85BF85B7886085BF01
S11342E08BB780688BBF089584B78F7B84BF8BB7EF
S11342F080628BBF0895009721F0909344038093CC
S113430043030895009721F090934203809341035F
S11343100895009721F09093400380933F030895FC
S113432093B7E0915907F0915A078381892B83BF92
S113433080E0089583B7887F83BF80E00895CF939A
S1134340C82F0E945C21CCBF0E94582180E0CF91ED
S11343500895CF93C82F0E945C21C2BF0E945821A8
S113436080E0CF9108959093470380934603089586
S113437090936707809366070895FC012481203495
S113438039F423B7206423BF23B7286023BF08C0B0
S1134390283031F423B72F7B23BF23B7286023BFF2
S11343A0FC018581823039F483B7806183BF83B790
S11343B08F7D83BF0895813031F483B7806283BFDA
S11343C083B7806183BF0895CF9312BE009709F429
S11343D046C090935A0780935907FC018081882333
S11343E011F0883029F493B7892B83BFC0E001C052
S11343F0C1E0E0915907F0915A078381883020F495
S113440093B7892B83BF01C0C1E0E0915907F091B4
S11344105A078281823021F499B7892B89BF04C05D
S113442089B78D7F89BFC1E0E0915907F0915A07A0
S11344308181813021F499B7892B89BF03C089B761
S11344408E7F89BFE0915907F0915A079481983083
S113445011F0903431F4CF010E94BD2103C0C1E0BA
S113446001C0C1E08C2FCF910895FC011DBC1CBC80
S113447097E0AFE5B7E001900D929A95E1F7EFE58B
S1134480F7E08081482F43708C7090E0880F991F6B
S1134490582F2281283020F4522F582B80E001C05D
S11344A081E090916407943021F499B7946099BFA6
S11344B001C081E030916007311108C0909162071A
S11344C0903109F529B7922B99BF24C0313041F4BA
S11344D0909163079830C9F429B7922B99BF1AC0F9
S11344E03230A9F490916207903121F429B7922BCC
S11344F099BF01C081E090916307983051F429B7C6
S1134500922B99BF07C081E005C081E003C081E020
S113451001C081E030915F07332339F0343029F052
S11345203C3019F090916507492B2FB5242B2FBDF2
S11345309EB5952B9EBD08959EB580916107892BEC
S11345408EBD80E008958EB51EBC80E00895CF93A3
S1134550DF93EC010E945C21D7BDC6BD0E945821A7
S113456080E0DF91CF9108950F931F93CF938C0137
S1134570C62F0E945C21C23031F41BBD0ABD19BD97
S113458008BDC0E00CC0C11103C01BBD0ABD07C0FB
S1134590C13021F419BD08BDC0E001C0C1E00E94D2
S11345A058218C2FCF911F910F910895CF93DF93B2
S11345B0EC010E945C21DDBDCCBD0E94582180E04D
S11345C0DF91CF9108957F928F929F92AF92BF9285
S11345D0CF92DF92EF92FF920F931F93CF93DF93CB
S11345E003E00E949025F22E032F142FD52FC62FFF
S11345F0B72FF82FE92F09C00000F72C082D192D2B
S1134600DA2DCB2DBC2DFD2DEE2D2F2D302F412F4E
S11346105D2F6C2F7B2F8F2F9E2FAFEF0E94A9252C
S1134620722E832E942EA52EB62EC72ED82EE92EAA
S11346302F2D302F412F5D2F6C2F7B2F8F2F9E2FEF
S1134640A0E00E94B525C1F6DF91CF911F910F9193
S1134650FF90EF90DF90CF90BF90AF909F908F909E
S11346607F9008957F928F929F92AF92BF92CF9244
S1134670DF92EF92FF920F931F93CF93DF93F22E6B
S1134680032F142FD52FC62FB72FF82FE92F12C0C1
S113469028EE33E040E050E060E070E080E090E03D
S11346A00E94E322F72C082D192DDA2DCB2DBC2DD9
S11346B0FD2DEE2D2F2D302F412F5D2F6C2F7B2FB5
S11346C08F2F9E2FAFEF0E94A925722E832E942E3A
S11346D0A52EB62EC72ED82EE92E2F2D302F412FE2
S11346E05D2F6C2F7B2F8F2F9E2FA0E00E94B5256E
S11346F079F6DF91CF911F910F91FF90EF90DF90AA
S1134700CF90BF90AF909F908F907F900895505816
S1134710BB27AA270E949F230C94E9240E94DB2430
S113472038F00E94E22420F039F49F3F19F426F473
S11347300C94D8240EF4E095E7FB0C94D224E92FD2
S11347400E94FA2458F3BA1762077307840795077F
S113475020F079F4A6F50C941C250EF4E0950B2EAC
S1134760BA2FA02D0B01B90190010C01CA01A001BF
S11347701124FF27591B99F0593F50F4503E68F11A
S11347801A16F040A22F232F342F4427585FF3CF5B
S1134790469537952795A795F0405395C9F77EF42C
S11347A01F16BA0B620B730B840BBAF09150A1F075
S11347B0FF0FBB1F661F771F881FC2F70EC0BA0FFB
S11347C0621F731F841F48F4879577956795B79583
S11347D0F7959E3F08F0B0CF9395880F08F099277E
S11347E0EE0F9795879508950E9408240C94E92468
S11347F00E94E22458F00E94DB2440F029F45F3F39
S113480029F00C94D22451110C941D250C94D82415
S11348100E94FA2468F39923B1F3552391F3951B6D
S1134820550BBB27AA2762177307840738F09F5FCD
S11348305F4F220F331F441FAA1FA9F335D00E2E3A
S11348403AF0E0E832D091505040E695001CCAF7A7
S11348502BD0FE2F29D0660F771F881FBB1F26176A
S113486037074807AB07B0E809F0BB0B802DBF0141
S1134870FF2793585F4F3AF09E3F510578F00C9410
S1134880D2240C941D255F3FE4F3983ED4F386951F
S113489077956795B795F7959F5FC9F7880F911D31
S11348A09695879597F90895E1E0660F771F881F1D
S11348B0BB1F621773078407BA0720F0621B730BD0
S11348C0840BBA0BEE1F88F7E09508950E94022529
S11348D088F09F5798F0B92F9927B751B0F0E1F0BD
S11348E0660F771F881F991F1AF0BA95C9F714C06D
S11348F0B13091F00E941C25B1E008950C941C2560
S1134900672F782F8827B85F39F0B93FCCF38695A5
S113491077956795B395D9F73EF490958095709502
S113492061957F4F8F4F9F4F0895E89409C097FB7F
S11349303EF490958095709561957F4F8F4F9F4F72
S11349409923A9F0F92F96E9BB279395F6958795B6
S113495077956795B795F111F8CFFAF4BB0F11F479
S113496060FF1BC06F5F7F4F8F4F9F4F16C0882320
S113497011F096E911C0772321F09EE8872F762F56
S113498005C0662371F096E8862F70E060E02AF097
S11349909A95660F771F881FDAF7880F9695879583
S11349A097F9089597F99F6780E870E060E00895AB
S11349B09FEF80EC089500240A9416161706180633
S11349C00906089500240A9412161306140605060F
S11349D00895092E0394000C11F4882352F0BB0FA0
S11349E040F4BF2B11F460FF04C06F5F7F4F8F4F03
S11349F09F4F089557FD9058440F551F59F05F3F3E
S1134A0071F04795880F97FB991F61F09F3F79F0EC
S1134A1087950895121613061406551FF2CF46956E
S1134A20F1DF08C0161617061806991FF1CF8695F0
S1134A307105610508940895E894BB2766277727D4
S1134A40CB0197F908950E9436250C94E9240E941D
S1134A50DB2438F00E94E22420F0952311F00C941A
S1134A60D2240C94D82411240C941D250E94FA24D9
S1134A7070F3959FC1F3950F50E0551F629FF001AD
S1134A80729FBB27F00DB11D639FAA27F00DB11DC6
S1134A90AA1F649F6627B00DA11D661F829F22274F
S1134AA0B00DA11D621F739FB00DA11D621F839FD6
S1134AB0A00D611D221F749F3327A00D611D231FAC
S1134AC0849F600D211D822F762F6A2F11249F57FA
S1134AD050409AF0F1F088234AF0EE0FFF1FBB1FFD
S1134AE0661F771F881F91505040A9F79E3F5105BC
S1134AF080F00C94D2240C941D255F3FE4F3983E7F
S1134B00D4F3869577956795B795F795E7959F5F65
S1134B10C1F7FE2B880F911D9695879597F90895F7
S1134B200F93083090F0982F872F762F652F542FEE
S1134B30432F322F22270850F4CF220F331F441F54
S1134B40551F661F771F881F991F0A95B2F70F918B
S1134B5008950024A7FD00942A0F301D401D501D08
S1134B60601D701D801D901D08950024A7FD0094F4
S1134B702A1730054005500560057005800590052D
S1094B800895F894FFCF34
S1054B86FF002A
S9030000FC
